:4000000000800020E1010000A9220000A9220000A9220000A9220000A9220000A9220000A9220000A9220000A9220000A9220000A9220000A9220000A9220000A922000024
:40004000A9220000A9220000A9220000A9220000A9220000A9220000A9220000A9220000A9220000A9220000A9220000A9220000A9220000A9220000A9220000A9220000D0
:40008000A9220000A9220000A9220000A9220000A9220000A9220000A9220000A9220000A9220000A9220000A9220000A9220000A9220000A9220000A9220000A922000090
:4000C00080B51448144B21E05C689968DD688C420CD0002205E0A6180832D6E9008941E902898C460831AA42F5D101E004EB050C1C696146002204E008320026002741E9DE
:4001000002670831A242F7D1143301380028DBD102F0B2F8010000006826000048F24013C1F6FF731A780AB901201870704700BF48F20010C1F6FF7008B503682BB140F222
:400140000003C0F2000303B1984708BD094B00201B6810B5196800F0C8F8074B1B681B78181AC0B2984204D00020BDE8104000F071B810BD1481FF1F1881FF1F10B5FFF7A8
:40018000E5FF00F08DFB00F0DFF8D0B900F096F80446F0B9012000F07DF800F08FF820B90134A4B2652CF5D101E0632C11D90B4B402247F230501A7000F060FB43F69820D9
:4001C00005E041F2883000F059FB40F6C41000F05BFB00F037FB00F06FFAFEE7FA460040064B1C7844F001041C70054B1A78D2B2044B1A7000F096F8FFF762FFE84600408F
:40020000FA460040BC7600400B4A0C4B1A6008331A6842F400721A6000230949094A5958D1500433C02BF8D1074B1978074B1970074B1A6000F06ABB0004FA050CED00E0C7
:40024000000000000080FF1FBC7600405081FF1F08ED00E001BE7047044B00F01F021B68103253F8220043F82210704708ED00E000F01F0000F16040490100F56440C9B2AB
:4002800001707047024B1B79584300F00DBC00BF0481FF1F10B5044604E0D86800F004FCA4F50044B4F5004F034BF6D898686043BDE8104000F0F8BB0481FF1F024B1878B0
:4002C000C0F30010704700BF2151004000231A4606E010F803C00139624492B2013389B20029F6D1524290B270470B18002004E013F8012D01398018C0B20029F8D1704782
:40030000034B6FF07F021A708132043B1A707047FA460040024B01461B781A46126808475081FF1F064B1A7802F0C002802A06D1803A1A70034B186808B1FFF7EBBF7047D9
:40034000FA460040C1FF03001A4B10B51A88043318680132120200231018194609E012F801CB0CF1FF34E4B26344FD2C98BF0121DBB28242F3D30F4A0F4C1288A0420CBFE6
:400380004FF40040C0080132520106E002F1904494F800C001326344DBB28242F6D3064A5B421278DBB2934202D109B1002010BD062010BDC5FF0300C0FF030013B50123C4
:4003C0000C46ADF806200B7048708A7091B20B0A0431E370204689B2FFF778FF02AA32F8021D63181871000A587107311720987189B22046962300F091F91CBD2DE9F04787
:400400000028ADF5607D14BF81464FF0FF0914BF0024012400F00AFA62B64FF0000845464CAEDEAA063230464FF496714B4600F0A1F9102800F00A81052800F00781BDF898
:400440007E33062B40F2FD803278012A40F0F980B6F802A01FFA8AFA0AF10401775A0AF107029A42BFB200F294800AEB06039B79172B40F0E680304689B2FFF727FF8742D8
:4004800000F0E8800820DDE0002C00F0DA80BAF1000F40F0D580FFF757FF4CABD0F1010038BF0020187101245046BCE0002C00F0C880BAF1010F40F0C380032F03D9544614
:4004C00000200422BFE00FB1002204E0744B1B681A68120A92B24CAB1A71120A5A714FF0FF329A7101240432DA7100201219AAE01CB1BAF1030F40F0A38001A800214FF4E4
:40050000907201F04FFE4FF49075002C00F09980BAF1020F40F294804CAC01A84019E11DAAF10302554401F075FDADB240F223139D4203D001240025032023E0B4F805408E
:40054000A4B2B8F1000F0FD197AD41464FF49072284601F027FE0320FF212A464FF4907300F0B2FA08F101083846214601AA4FF4907300F0A9FA054608B9012402E00124C1
:4005800000250A202A465EE005EB0A06B6F5967F01D9032056E001A8401952464DA901F039FD0020B5B202464DE0BAF1000F48D13C4A97AB92E803004DAA83E803000124F6
:4005C00082E80300504608223DE0002C39D0BAF1030F35D14CABB3F805404FF48071A4B204EB07200002FFF780FE7B0303EB441303F1904303F1200213F8011B0818934200
:40060000C0B2F9D1032F09D1FF2C07D1264B1B78C01A264B1B78C01A00F0FF0040424CAB18710124002022460DE0FFF78DFE18B91F4B6FF07F021A701E4B01221A7005E007
:400640000124042000224CA9FFF7B8FE002C7FF4E7AE21E073783779313B0A2B1AD801A252F823F089040000AD04000095060000F10400009106000095060000890500007D
:40068000AB0500000B050000CB0500002B0600000025DBE70520D5E70DF5607DBDE8F0871481FF1F04230000D0FF0300D1FF0300FA460040F646004010B5154C002023686A
:4006C0001968FFF712FE63681B78181AC0B2984209D123681B6833B100F080FA18B90D4800F038FA10B10020FFF7B4FDFFF72CFE28B9094B1B7803F0C003402B04D1064B62
:4007000000201870FFF77AFEBDE81040FFF7F8BD1481FF1F5481FF1FFA460040844670B502200D461446614640221E4600F09AFB0A235E430C4B1E80002604E00136012008
:40074000B6B2FFF7A7FD022000F06EFB18B9064B1B88B342F2D8022000F066FB08B9103070BD2580002070BD4281FF1F012000F0C3BB00002DE9F0410D460A2114464B43C8
:40078000294A064697781380F7B1002703E00120FFF780FD474600F037FB40B9224B07F101081B881FFA88F8BB42F0D8474600F02BFBC8B100F02EFBFFF7D8FF1A4B0022F2
:4007C0009A7011E000270FE000F024FB0028F9D000F01AFB0028F5D0FFF7C8FF04E001370120BFB2FFF756FD012000F01DFB012803D00D4B1B88BB42F1D8012000F014FB3C
:4008000001280AD13146402D34BF2A46402200F087FB20800020BDE8F0814FF0000323801020BDE8F08100BF4281FF1F08B562B60020022100F072FC014B01229A7008BD44
:400840004281FF1F024B1A7842F080021A70704775650040014B1880704700BF086A004001E0044B1B88044B1B7813F0100FF8D1704700BFA86A004064650040014B188048
:40088000704700BF886A0040014B1880704700BF486A0040014B1870704700BF8465004010B5164B164C1A784EF6602002F0C00242F00B021A70237843F001032370114BB5
:4008C0001A7842F001021A70FFF7C4FF4EF66020FFF7D4FF47F23050FFF7D6FF0020FFF7D9FF00F0E9F8237843F01003237000F0E7F8BDE81040FFF7B3BF00BF75650040A5
:40090000946500409565004001F084BB70B572B64B4C04F1300560782178237941EA0021A078627941EA0041E07843EA022241EA00600634002101F035FCAC42EBD10025CE
:400940002A46404B58594433C1B203EB420320F0FF000C4607E013F802CC13F801EC013C0CF800E0E4B20233002CF4D104355218442DE6D1344B354E1A78354842F00202A6
:400980001A7010331A78334942F002021A70337843F040033370304B1A7842F010021A700A22FFF7B1FF0A222C482D49FFF7ACFF08222C482C49FFF7A7FF2C4B4FF003010B
:4009C0001A78482042F008021A70294A01231370284B19801B2102331970274B15391970264B4C311970264B1978264B1970264B07211C80197025490C70023108701C707C
:400A000005331C700221083B1970214B2148197841F0010119706FF07E0313701E4B1F4A1B7803F0070111701B09013213701C4B31460E221D70BDE8704001F0EBBA00BF7E
:400A40000C2300003C23000003500140A0430040F051004070240000C2430040205100407C24000032510040882400002243004000480040804000400043004000420040E5
:400A80000F010049A14600400440004006400040A2430040B0430040CF0100496E58004076580040000000000230800803D000BF01380046FCD17047EFF3108072B6704787
:400AC00080F31088704700BFF8B504460D4617461E4600F01BF908B1042635E032462046394600F085F8072806462BD102E00120FFF7C8FB154B1A7812F0020FF7D01A7813
:400B000012F0020F1CD01B789B0819D1104B20461A7829465B7800F099F80728064611D102E00120FFF7AEFB084B1A7812F0020FF7D01A7812F0020F02D01E78B60801D026
:400B40004FF0FF3600F0C8F83046F8BD224700407482FF1F38B5044600F0FCF80CB9012038BD00F0D3F8054608B1042038BD034B1C6000F0B1F8284638BD00BF4881FF1F2F
:400B800010B500F0E7F800F0C1F808B104241EE0012000F085F8072815D102210D4800F0EDF802280AD102E00120FFF76BFB0A4B1B7813F0020FF7D0002406E0064B1B7814
:400BC00013F0020FE9D04FF0FF3400F085F8204610BD00BF7482FF1F2247004010B5FFF7CFFF18B9BDE81040FFF7CABF10BD000010B5144B93F800C01CF0020F01D104207D
:400C000010BD114C6FF0490C84F800C00CF11F0C84F800C00CF12D0C84F800C01B7813EA0C0301D0092010BD207005E011F803C00548013380F800C098B29042F6D3072058
:400C400010BD00BF224700402047004030B5124D95F800C01CF0020F01D1042030BD0F4C6FF0490C84F800C00CF1220C84F800C00CF12D0C84F800C095F800C01CF0020F79
:400C800001D0092030BD2070080AC9B22070217007202270237030BD22470040204700400B4A137813F0020F01D104207047094B6FF0490119702B3119702D311970127809
:400CC00012F0020F01D009207047187007207047224700402047004010B5FFF7EDFE094B002259781A70012908D107490C6844F001040C6000BF00BF00BF5A70BDE810409B
:400D0000FFF7DEBE4C81FF1F0400084010B5FFF7D3FE0E4B197809B1042412E04FF0010C0B4A83F800C0146814EA0C0409D0146824F00104146000BF00BF00BF83F801C0DF
:400D40000C46FFF7BDFE204610BD00BF4C81FF1F0400084010B5FFF7AFFE074B1A7842F008021A7010331A7842F008021A70BDE81040FFF7A5BE00BFA043004070B50446FB
:400D80000E4600250BE00120FFF77CFA064B1B7813F0010FF7D0054B1B7863550135EBB2B342F3D3304670BD22470040204700400C4B01221A700C4A002313700B4A137090
:400DC0000B4A13700B4A13700B4A13700B4A13700B4A13700B4B03221A70833A203B1A70704700BF1883FF1F9282FF1F9182FF1F8D82FF1F9082FF1F7882FF1F8F82FF1FDE
:400E00000983FF1F28600040014B1878704700BF9182FF1F034B1A78104612B1002218781A7070479082FF1F024B0C2202FB0033587870479C82FF1F431EDBB2072B01D939
:400E4000002070471B01064ADBB2985C01329B5C00F0070043EA0020023880B2704700BF0C600040431EDBB2072B30B53BD81E4D4FF00C0C0CFB0055B5F806C01B011B4C86
:400E80001FFA8CFCDBB2CCF5007C1C19624503D9EA88C2F5007292B2134D4FF00C0C0CFB005595F803C0124D4CEA122C03F805C05FFA82FC013503F805C059B14FF0000C18
:400EC00004E011F80C500CF1010C25701FFA8CF59542F6D3044A0C2101FB0020002242704179044A995430BD9C82FF1F886000400C6000400E600040431EDBB2072B0AD8C3
:400F0000054A0C2101FB0020002242701B014179024ADBB2995470479C82FF1F0E600040F8B5431EDBB2072B04460D46164616D8A9B11B010B4FDBB2DF19FFF77DFFB0429B
:400F400038BF0646B6B2002302E03A78EA5401339AB2B242F9D32046FFF7CEFF00E000263046F8BD88600040194B012210B51A70184B4FF400041C604FF080741C601A60EA
:400F800092181A60144B4FF0000C83F800C001B10322124B1A70124B124A187000231370114A01201370114A1370114A1370114A1370114A1370114B03221A70833A203BE9
:400FC0001A70FFF771FD0E4B04221A7010BD00BF1883FF1F00E100E09282FF1F096000408C82FF1F9182FF1F8D82FF1F9082FF1F7882FF1F8F82FF1F0983FF1F28600040A6
:40100000126000402DE9F041FFF756FD384B01241A78022642F001021A7010331A78354D42F001021A70344B07461C70943B1E7007331A78002002F07F021A70FFF722F988
:401040002B78204603F0F9032B702C4B1A7802F0DF021A702B7823432B70FFF713F92820FFF710F9264B30461A7802F07F021A701A7802F0BF021A702B7833432B70FFF79B
:4010800001F92B78384643F004032B701D4B00251D701B191D70FFF713FD17201A49FFF7DBF817200721FFF7E3F815201749FFF7D3F815200721FFF7DBF818201449FFF7C5
:4010C000CBF818200721FFF7D3F828461149FFF7C3F807212846FFF7CBF820460E49FFF7BBF820460721BDE8F041FFF7C1B800BFA5430040944300409D600040126000401E
:40110000F851004084600040DB150000D9150000D114000069150000A115000070B5074E054633780C461BB9FFF76CFF0123337028462146BDE87040FFF716BF4E81FF1F6B
:40114000204B21491A8809788A1892B21A801F4B00221A7012E01078596800F1804011F801CB00F5C04080F800C0596011780131C9B211701A88013A92B21A80144B1A88C7
:401180001AB1124A11780729E5D9104B1B781BB90D4B1B78082B0BD10E4B1A7882F080021A700D4B0F221A700C4B0D3A1A7004E0094A02231370094A1370044B1A78024B4E
:4011C0001A7070470C83FF1F0983FF1F0A83FF1F8082FF1F8E82FF1F7982FF1F9282FF1F074B02221A70074B823A1A70064B8F321A70064A00231370054A0120137070473F
:401200009282FF1F8E82FF1F7982FF1F0983FF1F0A83FF1FFFF794BF164B174A1B78174803F00F03023BDBB21370154B19881278521892B21A800DE0596810F801CB01F843
:4012400001CB596011780139C9B211701A88013A92B21A800B4B1A881AB1074A11780029EAD1094B1A7882F080021A70074B0B221A707047296000400A83FF1F00600040B6
:401280000C83FF1F8082FF1F8E82FF1F7982FF1F064A06231370064A01201370054B6FF07F021A70044B80321A7070479282FF1F7982FF1F8E82FF1F0A83FF1F054B9A68B8
:4012C0003AB19A68044910709A680988518000229A6070478082FF1F0C83FF1F08B50A4B1A7832B11978094A41F08001117000221A70074B00221A700120FFF7DFFF054BA3
:4013000003221A7008BD00BF7882FF1F086000409282FF1F7982FF1F08B5054B00221A700120FFF7CBFF034B03221A7008BD00BF9282FF1F7982FF1F074B1B78042B05D020
:40134000062B05D0022B05D1FFF764BFFFF7E4BFFFF7C4BF704700BF9282FF1F08B50849084B01201A8809788A1892B21A80064B00221A70FFF7A2FF044B03221A7008BD15
:401380000983FF1F0C83FF1F9282FF1F7982FF1F10B50B4B1B78042B07D0062B09D0022B0DD1BDE81040FFF7D9BFBDE81040FFF733BF0320FFF782FF024B03221A7010BDFF
:4013C0009282FF1F7982FF1F054A4FF000031380044A916819B191680B709268538070470C83FF1F8082FF1F08B50C4B04221A700B4B843A1A70FFF7E7FF0A4B1A78013B47
:401400001B7843EA0222084B198889B2914288BF1A80064B0B221A70012008BD9282FF1F8E82FF1F076000408082FF1F7982FF1F10B50E4C238813B9FFF7D2FE14E00C4B10
:4014400002221A700B4B023A1A70FFF7BDFF0A4B1A78013B1B7843EA0223228892B29A4288BF2380FFF76CFE012010BD8082FF1F9282FF1F8E82FF1F0760004008B5114BA6
:401480001A781A701B7813F0800F02D00E4A137008BD0220FFF712FF0C4B1B7803F06003202B05D0402B06D043B900F031FC04E000F088FD01E000F077FD10B9024B0322BD
:4014C0001A7008BD286000407982FF1F0060004008B5204B1B7813F0100F39D013F0800F0BD003F00F03012B32D1FFF7C7FF1A4B1B7813F0800F0BD008BD13F0400F02D08B
:40150000FFF71AFF04E013F0200F21D0FFF740FF104B1B7813F0800F1AD1104B104A1B78127842EA03030F4A1370127893420FD10949084B0A78187810F0800F04D10A7839
:401540001A701A7802F00F02034B1B789A42EFD108BD00BF286000407982FF1F8E82FF1F0A83FF1F296000400A4B1B780A4B1A7B02F00302012A03D0DA7B82F08002DA736B
:40158000054B01225A73054B1A7802F0FE021A70704700BF0E6000409C82FF1F0B6000400A4B1B780A4B1A7E02F00302012A03D0DA7E82F08002DA76054B01225A76054B89
:4015C0001A7802F0FD021A70704700BF1E6000409C82FF1F0B6000407047FFF7E9BB000010B5174C4FF000032380164B18780138C0B200F097F9144B1A7801331B7800EBA6
:40160000C3004169D3B9114B013A1B7801EBC3035968D3B2022B11D80D4B01EBC2001B7811F832209A4209D30C225A4341688B1858688A5A9B6860602280A36010BD00BF1E
:401640008082FF1F9182FF1F036000407C82FF1F0260004008B50D4B18780138C0B200F061F90B4B0B491B7800EBC3004269CB5C02EBC3035B68DB69597813F8022B42EA72
:401680000121054A1180536008BD00BF9182FF1F046000407C82FF1F8082FF1F08B50B4B18780138C0B200F03DF9094B09491B7800EBC3004269CB5C02EBC3035B685A6A79
:4016C000054B117819805A6008BD00BF9182FF1F046000407C82FF1F8082FF1F10B53D4B3D4A1B78117811F0800F35D001321278013A052A6CD8DFE802F01017276B6B0359
:40170000364B1A78212A02D1FFF7C8FF07E01B78222B5DD1FFF79EFF01E0FFF761FF304B1B88002B54D00BE0002B51D12D4B1B78002B4DD12A4B4FF001021A802A4A5A6084
:40174000BDE81040FFF774BE002B41D1244B4FF001011980254AF2E7127812F0800F37D1234A1278092A05D032D30A2A0CD00B2A2ED121E0FFF734FF194B1B88002B27D0C0
:40178000BDE81040FFF730BE002B21D1154B1B781946002B1CD1114B134A1B781370154B92F800C01878844501D219700CE01978012909D9127806E053B90A4B1A78012A84
:4017C00006D81A78094B1A70BDE81040FFF760BD002010BD0460004000600040036000408082FF1F026000401083FF1F1883FF1F016000401483FF1F037810B5012B1ED9DA
:401800004378032B1BD10022013B15E002F1924101F5807191F800C009494FEA1C140C5D0CF00F0CC45411F80C109C1C0132E4B20433D2B20155DBB201789942E6D810BD14
:401840009024000010B5002301212C4A0C209A1810702B4A00FB012254793CB1127912F0800F284A08BF08209A1803E0254A6FF07F009A181070224A4FF00C0C0CFB01220B
:40188000B2F808C020481FFA8CFC18184FEA1C2C80F800C0B2F808C01C485FFA8CFC181880F800C0B2F806C019485FFA8CFC181880F800C0B2F806C016481FFA8CFC1818EC
:4018C0004FEA1C2C80F800C0B2F806C012485FFA8CFC181880F800C0D28801310F4892B2C9B21818120A103309290270DBB2ACD10B4B4FF0FF321A7010BD00BF8060004041
:401900009C82FF1F0E6000400C6000400D600040866000408760004084600040856000400A600040044B1A78044B03EBC2035B6803EBC003D86870478C82FF1F3C26000048
:40194000F8B53D4B1A78002A74D018780138C0B2FFF7E8FF90F808C0C4684FEACC0C002066E0235C354A3649D55CC95C8D425ED02118D25C4D78954259D1324A127893424F
:4019800055D1CD788A7805F00305012D14BF0025012512F0800F02F07F032B4A09D00C2606FB03220B3E5670002D14BF07250D2508E00C2606FB03220C3E5670B54214BF3F
:4019C0000525092555715A1E1201204DD2B2551901262E700B365E431B4D8F8873191F818F781F71C97871550021D9701D891849ADB251182D0A0D701D891649EDB25118F5
:401A00000D70DD881449EDB251180D70DD881349ADB251182D0A0D70DD881149EDB251180D70DB880F499BB251181B0A0B700830604596D1F8BD00BF9182FF1F7C82FF1F4B
:401A40000883FF1F046000409C82FF1F0E6000400C6000400D6000408660004087600040846000408560004008B5064B18780138C0B2FFF757FF43681B7900EBC300406915
:401A800008BD00BF9182FF1F2DE9F04100214FF00C0C0CFB01FC524C00230CEB040201310CF80430092902F1080493705370D37053711381A370EAD118B14A4A13704A4AB2
:401AC00013704A4B1A78002A00F0888018780138C0B2FFF727FF43684FF0000CDB7913F0400F434B1A7814BF42F0010202F0FE021A70047AC168E700002241E0881890F88A
:401B000002E00EF07F05AB4239D1354D0C2606FB0355B5F8088086881FFA88F8B04538BF2E818D5C2F4E755D4678AE4227D1C5782B4805F00306012E14BF002601264FF0AC
:401B40000C081EF0800F08FB030008D0A8F10B0880F80180002E14BF07260D2607E0A8F10C0880F80180464514BF0526092646710C2673431A481E1886F804E01D54083247
:401B8000BA420CF10103B9D1082B9C46B3D1E40000230CE0CA189278114D02F07F024FF00C0C0CFB0252C85C083290700833A342F0D1FFF759FF0F4B186000231A46084970
:401BC00001330C2000FB0311CA8009895218082B92B2F4D1BDE8F041FFF734BEBDE8F0819C82FF1F7C82FF1F0883FF1F9182FF1F8F82FF1F9882FF1F10B50C4B1C780C4B80
:401C000018780138C0B2FFF78DFE43681B79A34209D944B9074B084A197801201170074A12781A7010BD002010BD00BF046000409182FF1F7C82FF1F0883FF1F02600040F4
:401C4000194B1B7803F07F035A1ED2B2072A01D90020704715480C2101FB03039878120100F0FE0098700020D8701148D2B212F800C00CF07F0C02F800C0587800F0FD0068
:401C8000587018795B7810F0800F03D0012B18BF0D2104E0012B01D1082100E00921054BD154FFF7F5BA00BF046000409C82FF1F0C6000400E600040124B197801F07F01DE
:401CC0004A1ED2B2072A01D9002070470E4B0C2000FB01339978120141F0010199700021D9705978D2B241F0020159701B7913F0800F064B14BF6FF072016FF07601D1542F
:401D0000FFF7C6BA046000409C82FF1F0E60004010B5754B4FF000021A80744B1B7813F0800F734B1B7800F093800A2B00F23081DFE813F05C002E012E012E012E012E011E
:401D40000B002E017E002E0184006A4B1A78012A0BD1694B1A78694B03EBC2035B685A68614B5A604FF012020FE01A78022A11D1634B1878FFF7D6FD5B4B42685A605A685D
:401D8000D1785A68927842EA01221A80BDE81040FFF74EBB1B78032B24D15A4B002203E0197801325B18D2B255490978914202D919780029F4D1524A117851B1524912787E
:401DC000097C914205D1514B51481B78FFF714FD4F4B1A78002A00F0DB801978424A11805360D3E7BDE8104000F0ECB83F4B1A7812F0030211D0022A40F0CA803A4904333D
:401E00000A801B78434A03F07F030C2000FB03239A78414B1A70002207E033494FF002030B803E4B18783C4B18705A704B60ADE72D4B4FF001021A80394A07E02A4B4FF017
:401E400001021A80374A384912788A185A609DE7013B0A2B00F29C80DFE813F02C009A0070009A000B009A009A009A000F009A001900234B1A782D4B79E0214B01201A78B5
:401E8000274B1A702A4B1870FFF7FEFD7CE0FFF7B3FE00287CD0234B264C1B7801222370234B1A70FFF74CFD23781F492278895C214A68E00D4B1B7803F00303012B58D0F4
:401EC00009D3022B64D10E4B1B78002B60D1BDE81040FFF7B5BE0A4B1B78012B58D10F4B1A7802F0FD0242E08082FF1F0060004001600040036000408C82FF1F3C26000030
:401F000002600040E0240000A02400004F81FF1F1C81FF1F9C82FF1F1C83FF1F8F82FF1F9182FF1F046000407C82FF1F7882FF1F9082FF1F8D82FF1F0883FF1F154B1B7864
:401F400003F00303012B14D009D3022B20D1124B1B78002B1CD1BDE81040FFF7ADBE0E4B1B78012B14D10D4B1A7842F002021A700AE00B4B1A785AB91B780A4A0648D15C12
:401F8000007821EA0001D154BDE81040FFF780B9002010BD00600040026000408F82FF1F046000409482FF1F044B1B7813F0800F1CBF034B1B780020704700BF00600040B8
:401FC000016000400F4B1B7803F00303012B03D0022B04D000230CE00B4B1B7809E00A4B0A4A1B780C2103F07F0301FB032308339B78074A1268D35C032B01D0002070475B
:40200000FFF76CBB00600040046000409C82FF1F9882FF1F032A2DE9F0070BD83AB1002311F803C000F803C001339342F8D1BDE8F007704782180C46034603E014F8011CB3
:4020400003F8011C03F003061946A44601330134002EF3D11CF00304634608BFC1EB020C68D06542C4F1040A0CEB050733464FEACA0A5CF805604FEAC408551A08E057F8DC
:40208000044F264604FA0AF449EA0404CC5004335C18032D26FA08F9A5F104050CEB0306EDDC002302E0F15CE154013319199142F9D3BCE753F8404C41F8404C53F83C4C0C
:4020C00041F83C4C53F8384C41F8384C53F8344C41F8344C53F8304C41F8304C53F82C4C41F82C4C53F8284C41F8284C53F8244C41F8244C53F8204C41F8204C53F81C4C40
:4021000041F81C4C53F8184C41F8184C53F8144C41F8144C53F8104C41F8104C53F80C4C41F80C4C53F8084C41F8084C53F8044C41F8044C1C460D4640334031BCF13F0F1A
:40214000ACF1400CB6DC21462B46541B0FE051F8105C43F8105C51F80C5C43F80C5C51F8085C43F8085C51F8045C43F8045C0F2C0D469C4601F1100103F11003A4F110044B
:40218000E5DCCCEB0201002303E0EC584CF8034004335E19032903EB0C04A1F10401F4DC7FE700BF032AC9B230B407D822B10023C15401339342FBD130BC704700EB020C88
:4021C000034601E003F8011C03F003041A460133002CF7D14FF00133C2EB0C0403FB01F31FE042F8403C42F83C3C42F8383C42F8343C42F8303C42F82C3C42F8283C42F81A
:40220000243C42F8203C42F81C3C42F8183C42F8143C42F8103C42F80C3C42F8083C42F8043C154640323F2CA4F14004D9DC2A46C5EB0C0407E042F8103C42F80C3C42F8DF
:40224000083C42F8043C154610320F2CA4F11004F1DC2A46C5EB0C0501E042F8043C14460432032DA5F10405F7DC01E004F8011B6445FBD3A0E700BF08B500F017F80748D3
:4022800000B10068064901B109680022FDF776FF044B0BB1AFF30080FEE700BF000000000000000000000000FEE7000070B542F2506642F25065C0F20006C0F20005761B5A
:4022C000B61006D0002455F8243001349847A642F9D842F2506542F25866C0F20005C0F20006761B00F0AEF9B61006D0002455F8243001349847A642F9D870BD7100000072
:40230000002800006970122E00000101005100402000405100403000C0510040100000000140001000140140000800400140000A004C014000020050014020000145004048
:4023400003520040016500403D1401401C150140011701400119014003400140024101400242014002430140034701400348014004490140024C01400250014001510140FD
:402380007E02141018027C40842D0801340138083E104020410449FF4AFF4BFF4DA04F045018542558045A045B045F01604062C06440654066C068C06AC06CC06EC0940893
:4023C0009C0EA40EAE03B008B204B401B602C020C104C5D0C602C710C82EC9FFCAFFCBFFCDAFCE0FCF04D018D280D804DA04DB04DF01E040E2C0E440E540E6C0E8C0EAC0E9
:40240000ECC0EEC000100E200F021620178018141C021D201E6041204280452046804D0256A0570159025A446004778084018684C002C2A0C4A0D0A5D60BD804EE0AEE0AA9
:4024400033803640CC30A640A780A640A780A640A78008080F40C20CAE40AF80EE5057208720D440E610AC08AF4010011A01000A0000000000000000C000000010001000A7
:4024800000000000000000000002020002000000303132333435363738394142434445461201000200000008B4043BF100010104800100000902290001010280FA0904002D
:4024C0000002030000030921110100012224000705010340000107058203400001000000040309042C0343007900700072006500730073002000530065006D0069006300F1
:402500006F006E0064007500630074006F0072002A0343006F006E00660069006700750072006100740069006F006E002000300078003000300030003100220349006E0043
:402540007400650072006600610063006500200030007800300030003000310026034B0069007400500072006F006700200042006F006F0074006C006F0061006400650056
:402580007200000002030000240005FF0900A1010900A1010900150025FF7508954091020900150025FF750895408102C0C00000410000002883FF1F2483FF1F4100000058
:4025C0006C83FF1FB083FF1F00000000B025000000000000BC2500000000000000000000010000008825000001000000C624000001000000C82500000000010340000300F9
:4026000000008203400003000300000001000000B424000002000000F825000001000000F0250000000000000826000001000000A0240000010000000C260000010000009A
:402640002C260000F8B500BFF8BC08BC9E4670473101000009020000F8B500BFF8BC08BC9E4670471D01000000000000802600000080FF1F400100007802000000000000B0
:40268000000000000000000000000000000000000000000000000000000000000000000000000000000000000000000000000000000000000000000000000000000000001A
:4026C00000000000000000000000000000000000000000000000000000000000000000000000000000000000000000000000000000000000000000000000000000000000DA
:402700000000000000000000000000000000000000000000000000000000000000000000000000000000000000000000000000000000000000000000000000000000000099
:402740000000000000000000000000000000000000000000000000000000000000000000000000000000000000000000000000000000000000000000000000000000000059
:402780000000000000366E0118000000C05D00000000E02E00230000FC220000220300000000000000000000000000000000000000000000000000000000000000000000CB
:4027C00000000000000000000000000000000000000000000000000000000000000000000000000000000000000000000000000000000000000000000000000000000000D9
:4028000000800020F1620000DDE70000DDE70000DDE70000DDE70000DDE70000DDE70000DDE70000DDE70000DDE70000DDE70000DDE70000DDE70000DDE70000DDE70000ED
:40284000DDE70000DDE70000DDE70000DDE70000DDE70000DDE70000DDE70000DDE70000DDE70000DDE70000DDE70000DDE70000DDE70000DDE70000DDE70000DDE7000018
:40288000DDE70000DDE70000DDE70000DDE70000DDE70000DDE70000DDE70000DDE70000DDE70000DDE70000DDE70000DDE70000DDE70000DDE70000DDE70000DDE70000D8
:4028C00080B51448144B21E05C689968DD688C420CD0002205E0A6180832D6E9008941E902898C460831AA42F5D101E004EB050C1C696146002204E008320026002741E9B6
:4029000002670831A242F7D1143301380028DBD10BF04CFF0100000000F5000048F26813C1F6FF731A780AB901201870704700BF48F20010C1F6FF7008B503682BB140F2C1
:402940000003C0F2000303B1984708BD80B500AF62B603F033F802F04DFA02F04DFD00F07BF803F067FA03F0ABFC48F26913C1F6FF734FF000021A7000E000BF4FF00100DE
:4029800005F05EFC07F058FF0346002BFAD048F26913C1F6FF731B78DBB2002B0DD14FF000004FF0020107F017FA0BF0C1F80AF0B7FF03E003F00CFB00E000BF07F060FD77
:4029C0000346002BF6D04FF0000005F039FC4FF0020007F0CDFE4FF0040007F0C9FE03F079FC48F26913C1F6FF734FF000021A7013E002F011FD02F077F903F007FB03F0E1
:402A0000E7FA07F049FD0346002B06D048F26913C1F6FF734FF001021A7007F00DFF0346002B07D048F26913C1F6FF731B78DBB2002BDED000F072F848F26913C1F6FF7324
:402A40001B78DBB2002B98D107F05AFC0BF086F80AF078FF92E700BF80B483B000AF48F25B33C1F6FF734FF000021A7048F26433C1F6FF734FF021021A7048F25A33C1F6FD
:402A8000FF734FF000021A704FF00003FB710BE0FA7948F26033C1F6FF734FF000019954FB7903F10103FB71FB79032BF0D945F21103C4F2000345F21102C4F200021278D7
:402AC000D2B2D2B202F0F10242F00202D2B2D2B21A7045F21003C4F2000345F21002C4F200021278D2B2D2B202F0F10242F00202D2B2D2B21A7042F20043C4F20A234FF045
:402B000001021A7042F20443C4F20A234FF001021A7007F10C07BD4680BC704780B400AF45F21003C4F2000345F21002C4F200021278D2B2D2B202F0F10242F00202D2B2C5
:402B4000D2B21A7045F21103C4F2000345F21102C4F200021278D2B2D2B202F0F10242F00202D2B2D2B21A7045F21403C4F2000345F21402C4F200021278D2B2D2B202F072
:402B8000F10242F00202D2B2D2B21A70BD4680BC704700BF80B400AF45F21003C4F2000345F21002C4F200021278D2B2D2B202F0F10242F00202D2B2D2B21A7042F2044304
:402BC000C4F20A234FF000021A7000BF00BF00BF42F20443C4F20A234FF001021A7000BF00BF00BFBD4680BC704700BF80B500AF42F20043C4F20A234FF000021A7045F28E
:402C00001003C4F2000345F21002C4F200021278D2B2D2B202F0F10242F00C02D2B2D2B21A7000BF00BF42F20443C4F20A234FF000021A7000BF00BF00BF42F20443C4F269
:402C40000A234FF001021A7000BF00BF00BF42F20443C4F20A234FF000021A7000BF00BF00BF42F20443C4F20A234FF001021A7000BF00BF00BF42F20443C4F20A234FF0B4
:402C800000021A7000BF00BF00BF42F20443C4F20A234FF001021A7000BF00BF00BF42F20443C4F20A234FF000021A7000BF00BF00BF42F20443C4F20A234FF001021A7054
:402CC00000BF00BF00BF42F20443C4F20A234FF000021A7000BF00BF00BF42F20443C4F20A234FF001021A7000BF00BF00BF42F20443C4F20A234FF000021A7000BF00BF23
:402D000000BF42F20443C4F20A234FF001021A7000BF00BF00BF42F20443C4F20A234FF000021A7000BF00BF00BF42F20443C4F20A234FF001021A7000BF00BF00BF42F26C
:402D40000443C4F20A234FF000021A7000BF00BF00BF42F20443C4F20A234FF001021A7000BF00BF00BF42F20443C4F20A234FF000021A7000BF00BF00BF42F20443C4F223
:402D80000A234FF001021A7000BF00BF00BF42F20443C4F20A234FF000021A7000BF00BF00BF42F20443C4F20A234FF001021A7000BF00BF00BF42F20443C4F20A234FF073
:402DC00000021A7000BF00BF00BF42F20443C4F20A234FF001021A7000BF00BF00BF42F20443C4F20A234FF000021A7000BF00BF00BF42F20443C4F20A234FF001021A7013
:402E000000BF00BF00BF42F20443C4F20A234FF000021A7000BF00BF00BF42F20443C4F20A234FF001021A7000BF00BF00BF42F20443C4F20A234FF000021A7000BF00BFE1
:402E400000BF42F20443C4F20A234FF001021A7000BF00BF00BF42F20443C4F20A234FF000021A7000BF00BF00BF42F20443C4F20A234FF001021A7000BF00BF00BF42F22B
:402E80000443C4F20A234FF000021A7000BF00BF00BF42F20443C4F20A234FF001021A7000BF00BF00BF42F20443C4F20A234FF000021A7000BF00BF00BF42F20443C4F2E2
:402EC0000A234FF001021A7000BF00BF00BF42F20443C4F20A234FF000021A7000BF00BF00BF42F20443C4F20A234FF001021A7000BF00BF00BF42F20443C4F20A234FF032
:402F000000021A7000BF00BF00BF42F20443C4F20A234FF001021A7000BF00BF00BF42F20443C4F20A234FF000021A7000BF00BF00BF42F20443C4F20A234FF001021A70D1
:402F400000BF00BF00BF48F25B33C1F6FF731B78184600F063F945F21003C4F2000345F21002C4F200021278D2B2D2B202F0F10242F00202D2B2D2B21A7080BD80B400AF83
:402F800045F21003C4F2000345F21002C4F200021278D2B2D2B202F0F10242F00202D2B2D2B21A7042F20443C4F20A234FF000021A7042F22043C4F20A231B78DAB248F2D2
:402FC0006B13C1F6FF731A7042F20443C4F20A234FF001021A7042F20443C4F20A234FF000021A7042F22043C4F20A231B78DAB248F26C13C1F6FF731A7042F20443C4F217
:403000000A234FF001021A7042F20443C4F20A234FF000021A7042F22043C4F20A231B78DAB248F26D13C1F6FF731A7042F20443C4F20A234FF001021A70BD4680BC704748
:4030400080B582B000AF786045F21003C4F2000345F21002C4F200021278D2B2D2B202F0F10242F00C02D2B2D2B21A707B681B787A6802F101027A60184600F0CFF87B68F5
:403080001B787A6802F101027A60184600F0C6F87B681B787A6802F101027A60184600F0BDF87B681B78184600F0B8F807F10807BD4680BD80B582B000AF786045F21003A1
:4030C000C4F2000345F21002C4F200021278D2B2D2B202F0F10242F00202D2B2D2B21A7000F074F903461A467B681A707B6803F101037B6000F06AF903461A467B681A7045
:403100007B6803F101037B6000F060F903461A467B681A707B6803F101037B6000F056F903461A467B681A7007F10807BD4680BD90B482B000AF0346FB714FF00004FB7997
:4031400003F00103DBB2002B02D004F10103DCB2FB794FEA5303FB71FB7903F00103DBB2002B02D004F10103DCB2FB794FEA5303FB71FB7903F00103DBB2002B02D004F103
:403180000103DCB2FB794FEA5303FB71FB7903F00103DBB2002B02D004F10103DCB2FB794FEA5303FB71FB7903F00103DBB2002B02D004F10103DCB2FB794FEA5303FB7138
:4031C000FB7903F00103DBB2002B02D004F10103DCB2FB794FEA5303FB71FB7903F00103DBB2002B02D004F10103DCB2FB794FEA5303FB71FB7903F00103DBB2002B02D004
:4032000004F10103DCB2FB794FEA5303FB712346184607F10807BD4690BC704780B483B000AF0346FB7140F20013C2F20003FA791A7042F20443C4F20A234FF000021A70D7
:4032400042F20043C4F20A2342F20002C2F200221278D2B21A7042F20443C4F20A234FF001021A7042F20443C4F20A234FF000021A7042F20043C4F20A2342F20402C2F2B5
:4032800000221278D2B21A7042F20443C4F20A234FF001021A7042F20443C4F20A234FF000021A7042F20043C4F20A2342F20802C2F200221278D2B21A7042F20443C4F2CA
:4032C0000A234FF001021A7042F20443C4F20A234FF000021A7042F20043C4F20A2342F20C02C2F200221278D2B21A7042F20443C4F20A234FF001021A7042F20443C4F247
:403300000A234FF000021A7042F20043C4F20A2342F21002C2F200221278D2B21A7042F20443C4F20A234FF001021A7042F20443C4F20A234FF000021A7042F20043C4F207
:403340000A2342F21402C2F200221278D2B21A7042F20443C4F20A234FF001021A7042F20443C4F20A234FF000021A7042F20043C4F20A2342F21802C2F200221278D2B289
:403380001A7042F20443C4F20A234FF001021A7042F20443C4F20A234FF000021A7042F20043C4F20A2342F21C02C2F200221278D2B21A7042F20443C4F20A234FF0010276
:4033C0001A7007F10C07BD4680BC704780B400AF42F20443C4F20A234FF000021A7042F20003C2F2002342F22042C4F20A221278D2B21A7042F20443C4F20A234FF0010278
:403400001A7042F20443C4F20A234FF000021A7042F20403C2F2002342F22042C4F20A221278D2B21A7042F20443C4F20A234FF001021A7042F20443C4F20A234FF00002EE
:403440001A7042F20803C2F2002342F22042C4F20A221278D2B21A7042F20443C4F20A234FF001021A7042F20443C4F20A234FF000021A7042F20C03C2F2002342F2204299
:40348000C4F20A221278D2B21A7042F20443C4F20A234FF001021A7042F20443C4F20A234FF000021A7042F21003C2F2002342F22042C4F20A221278D2B21A7042F2044396
:4034C000C4F20A234FF001021A7042F20443C4F20A234FF000021A7042F21403C2F2002342F22042C4F20A221278D2B21A7042F20443C4F20A234FF001021A7042F204431D
:40350000C4F20A234FF000021A7042F21803C2F2002342F22042C4F20A221278D2B21A7042F20443C4F20A234FF001021A7042F20443C4F20A234FF000021A7042F21C0301
:40354000C2F2002342F22042C4F20A221278D2B21A7042F20443C4F20A234FF001021A7040F20013C2F200031B78DBB21846BD4680BC704780B582B000AF45F21103C4F2B3
:40358000000345F21102C4F200021278D2B2D2B202F0F10242F00C02D2B2D2B21A7002F003FF0346FB7142F20043C4F20A234FF001021A7045F21003C4F2000345F21002A2
:4035C000C4F200021278D2B2D2B202F0F10242F00C02D2B2D2B21A7042F20443C4F20A234FF000021A7000BF00BF00BF42F20443C4F20A234FF001021A7000BF00BF00BFFD
:4036000042F20443C4F20A234FF000021A7000BF00BF00BF42F20443C4F20A234FF001021A7000BF00BF00BF42F20443C4F20A234FF000021A7000BF00BF00BF42F20443DC
:40364000C4F20A234FF001021A7000BF00BF00BF42F20443C4F20A234FF000021A7000BF00BF00BF42F20443C4F20A234FF001021A7000BF00BF00BF42F20443C4F20A2333
:403680004FF000021A7000BF00BF00BF42F20443C4F20A234FF001021A7000BF00BF00BF42F20443C4F20A234FF000021A7000BF00BF00BF42F20443C4F20A234FF0010295
:4036C0001A7000BF00BF00BF42F20443C4F20A234FF000021A7000BF00BF00BF42F20443C4F20A234FF001021A7000BF00BF00BF42F20443C4F20A234FF000021A7000BF4E
:4037000000BF00BF42F20443C4F20A234FF001021A7000BF00BF00BF42F20443C4F20A234FF000021A7000BF00BF00BF42F20443C4F20A234FF001021A7000BF00BF00BFD7
:4037400042F20443C4F20A234FF000021A7000BF00BF00BF42F20443C4F20A234FF001021A7000BF00BF00BF42F20443C4F20A234FF000021A7000BF00BF00BF42F204439B
:40378000C4F20A234FF001021A7000BF00BF00BF42F20443C4F20A234FF000021A7000BF00BF00BF42F20443C4F20A234FF001021A7000BF00BF00BF42F20443C4F20A23F2
:4037C0004FF000021A7000BF00BF00BF42F20443C4F20A234FF001021A7000BF00BF00BF42F20443C4F20A234FF000021A7000BF00BF00BF42F20443C4F20A234FF0010254
:403800001A7000BF00BF00BF42F20443C4F20A234FF000021A7000BF00BF00BF42F20443C4F20A234FF001021A7000BF00BF00BF42F20443C4F20A234FF000021A7000BF0C
:4038400000BF00BF42F20443C4F20A234FF001021A7000BF00BF00BF42F20443C4F20A234FF000021A7000BF00BF00BF42F20443C4F20A234FF001021A7000BF00BF00BF96
:4038800042F20443C4F20A234FF000021A7000BF00BF00BF42F20443C4F20A234FF001021A7000BF00BF00BF42F20443C4F20A234FF000021A7000BF00BF00BF42F204435A
:4038C000C4F20A234FF001021A7000BF00BF00BF42F20443C4F20A234FF000021A7000BF00BF00BF42F20443C4F20A234FF001021A7000BF00BF00BF42F20443C4F20A23B1
:403900004FF000021A7000BF00BF00BF42F20443C4F20A234FF001021A7000BF00BF00BF42F20443C4F20A234FF000021A7000BF00BF00BF42F20443C4F20A234FF0010212
:403940001A7000BF00BF00BF42F20443C4F20A234FF000021A7000BF00BF00BF42F20443C4F20A234FF001021A7000BF00BF00BF42F20443C4F20A234FF000021A7000BFCB
:4039800000BF00BF42F20443C4F20A234FF001021A7000BF00BF00BF42F20443C4F20A234FF000021A7000BF00BF00BF42F20443C4F20A234FF001021A7000BF00BF00BF55
:4039C00042F20443C4F20A234FF000021A7000BF00BF00BF42F20443C4F20A234FF001021A7000BF00BF00BF42F20443C4F20A234FF000021A7000BF00BF00BF42F2044319
:403A0000C4F20A234FF001021A7000BF00BF00BF42F20443C4F20A234FF000021A7000BF00BF00BF42F20443C4F20A234FF001021A7000BF00BF00BF42F20443C4F20A236F
:403A40004FF000021A7000BF00BF00BF42F20443C4F20A234FF001021A7000BF00BF00BF42F20443C4F20A234FF000021A7000BF00BF00BF42F20443C4F20A234FF00102D1
:403A80001A7000BF00BF00BF42F20443C4F20A234FF000021A7000BF00BF00BF42F20443C4F20A234FF001021A7000BF00BF00BF42F20443C4F20A234FF000021A7000BF8A
:403AC00000BF00BF42F20443C4F20A234FF001021A7000BF00BF00BF42F20443C4F20A234FF000021A7000BF00BF00BF42F20443C4F20A234FF001021A7000BF00BF00BF14
:403B000042F20443C4F20A234FF000021A7000BF00BF00BF42F20443C4F20A234FF001021A7000BF00BF00BF42F20443C4F20A234FF000021A7000BF00BF00BF42F20443D7
:403B4000C4F20A234FF001021A7000BF00BF00BF42F20443C4F20A234FF000021A7000BF00BF00BF42F20443C4F20A234FF001021A7000BF00BF00BF42F20443C4F20A232E
:403B80004FF000021A7000BF00BF00BF42F20443C4F20A234FF001021A7000BF00BF00BF42F20443C4F20A234FF000021A7000BF00BF00BF42F20443C4F20A234FF0010290
:403BC0001A7000BF00BF00BF42F20443C4F20A234FF000021A7000BF00BF00BF42F20443C4F20A234FF001021A7000BF00BF00BF42F20443C4F20A234FF000021A7000BF49
:403C000000BF00BF42F20443C4F20A234FF001021A7000BF00BF00BF42F20443C4F20A234FF000021A7000BF00BF00BF42F20443C4F20A234FF001021A7000BF00BF00BFD2
:403C400042F20443C4F20A234FF000021A7000BF00BF00BF42F20443C4F20A234FF001021A7000BF00BF00BF42F20443C4F20A234FF000021A7000BF00BF00BF42F2044396
:403C8000C4F20A234FF001021A7000BF00BF00BF42F20443C4F20A234FF000021A7000BF00BF00BF42F20443C4F20A234FF001021A7000BF00BF00BF42F20443C4F20A23ED
:403CC0004FF000021A7000BF00BF00BF42F20443C4F20A234FF001021A7000BF00BF00BF42F20443C4F20A234FF000021A7000BF00BF00BF42F20443C4F20A234FF001024F
:403D00001A7000BF00BF00BF42F20443C4F20A234FF000021A7000BF00BF00BF42F20443C4F20A234FF001021A7000BF00BF00BF42F20443C4F20A234FF000021A7000BF07
:403D400000BF00BF42F20443C4F20A234FF001021A7000BF00BF00BF42F20443C4F20A234FF000021A7000BF00BF00BF42F20443C4F20A234FF001021A7000BF00BF00BF91
:403D800042F20443C4F20A234FF000021A7000BF00BF00BF42F20443C4F20A234FF001021A7000BF00BF00BF42F20443C4F20A234FF000021A7000BF00BF00BF42F2044355
:403DC000C4F20A234FF001021A7000BF00BF00BF42F20443C4F20A234FF000021A7000BF00BF00BF42F20443C4F20A234FF001021A7000BF00BF00BF42F20443C4F20A23AC
:403E00004FF000021A7000BF00BF00BF42F20443C4F20A234FF001021A7000BF00BF00BF42F20443C4F20A234FF000021A7000BF00BF00BF42F20443C4F20A234FF001020D
:403E40001A7000BF00BF00BF42F20443C4F20A234FF000021A7000BF00BF00BF42F20443C4F20A234FF001021A7000BF00BF00BF42F20443C4F20A234FF000021A7000BFC6
:403E800000BF00BF42F20443C4F20A234FF001021A7000BF00BF00BF42F20443C4F20A234FF000021A7000BF00BF00BF42F20443C4F20A234FF001021A7000BF00BF00BF50
:403EC00042F20443C4F20A234FF000021A7000BF00BF00BF42F20443C4F20A234FF001021A7000BF00BF00BF42F20443C4F20A234FF000021A7000BF00BF00BF42F2044314
:403F0000C4F20A234FF001021A7000BF00BF00BF42F20443C4F20A234FF000021A7000BF00BF00BF42F20443C4F20A234FF001021A7000BF00BF00BFFB79184602F038FAD2
:403F400045F21003C4F2000345F21002C4F200021278D2B2D2B202F0F10242F00202D2B2D2B21A7007F10807BD4680BD80B584B000AF78604FF00003FB737B681B787A68BF
:403F800002F101027A601846FFF7D2F803461A46FB7B1344FB737B681B787A6802F101027A601846FFF7C4F803461A46FB7B1344FB737B681B787A6802F101027A6018468D
:403FC000FFF7B6F803461A46FB7B1344FB737B681B787A6802F101027A601846FFF7A8F803461A46FB7B1344FB73FB7B03F00103184607F11007BD4680BD00BF80B586B0F5
:4040000000AF02460B46FA71BB714FF00003BB744FF06403BB8202F0C7F90346FB754FF000037B7438E1FB79002B69D145F21403C4F2000345F21402C4F200021278D2B2A5
:40404000D2B202F0F10242F00C02D2B2D2B21A7045F21403C4F2000345F21402C4F200021278D2B202F0FE021A7045F21103C4F2000345F21102C4F200021278D2B2D2B2D7
:4040800002F0F10242F00C02D2B2D2B21A7045F21003C4F2000345F21002C4F200021278D2B2D2B202F0F10242F00C02D2B2D2B21A7042F20043C4F20A234FF001021A70D6
:4040C00042F20443C4F20A234FF001021A704FF0640002F06FFE45F21403C4F2000345F21402C4F200021278D2B2D2B202F0F10242F00202D2B2D2B21A704FF06403BB8266
:404100004FF00003FB74FFF735FA48F26033C1F6FF734FF000021A7048F25B33C1F6FF736FF05A021A7048F26030C1F6FF7000F0EBF948F26433C1F6FF731B7803F00F035C
:40414000012B02D14FF00103FB74BB8A03F1FF33BB82BB8A002B02D0FB7C002BD3D06FF056033B734FF000037B734FF00003BB734FF00003FB734FF054033B7407F10C025E
:4041800007F10B031046194600F026FBFB7A03F00703012B73D16FF04E033B734FF000037B734FF00003BB734FF00003FB734FF000033B7407F10C0207F10B0310461946F1
:4041C00000F00AFBFB7A03F00703012B59D16FF05C033B734FF002037B734FF00003BB734FF00003FB734FF000033B7407F10C0207F10B031046194600F0EEFAFB7A03F052
:404200000703012B3FD16FF074033B734FF014037B734FF00003BB734FF00303FB734FF040033B7407F10C0207F10B031046194600F0D2FAFB7A03F00703012B25D16FF0AC
:4042400044033B734FF000037B734FF00003BB734FF00003FB736FF07F033B7407F10C0207F10B031046194600F0B6FAFB7A03F00703012B0BD14FF00103BB7411E000BF6C
:4042800006E000BF04E000BF02E000BF00E000BF7B7C03F101037B747A7CBB799A42FFF4C2AEFB7D184602F083F8BB7C184607F11807BD4680BD00BF80B584B000AF786051
:4042C00002F072F80346FB7348F26433C1F6FF734FF000021A707868FFF748FE0346BB73FEF784FCFEF756FCFEF748FE48F26C13C1F6FF731B784FEA4303DAB248F26B1324
:40430000C1F6FF731B7842EA0303DAB248F26D13C1F6FF731B784FEA8303DBB242EA0303DBB2DAB248F25A33C1F6FF731A70FEF731FC48F25A33C1F6FF731B78022B7BD05F
:40434000042B79D0012B40F0AA807868FEF778FEBB7B002B07D042F20043C4F20A234FF001021A7006E042F20043C4F20A234FF000021A7042F20443C4F20A234FF00002EC
:404380001A7000BF00BF00BF42F20443C4F20A234FF001021A7000BF00BF00BF42F20043C4F20A234FF000021A7042F20443C4F20A234FF000021A7000BF00BF00BF42F210
:4043C0000443C4F20A234FF001021A7000BF00BF00BF45F21003C4F2000345F21002C4F200021278D2B2D2B202F0F10242F00202D2B2D2B21A7042F20043C4F20A234FF0AE
:4044000001021A7042F20443C4F20A234FF001021A7048F26433C1F6FF731A7848F25A33C1F6FF731B7842EA0303DAB248F26433C1F6FF731A705FE045F21003C4F2000332
:4044400045F21002C4F200021278D2B2D2B202F0F10242F00202D2B2D2B21A7042F20043C4F20A234FF001021A7042F20443C4F20A234FF001021A7048F26433C1F6FF73B2
:404480001A7848F25A33C1F6FF731B7842EA0303DAB248F26433C1F6FF731A702CE045F21003C4F2000345F21002C4F200021278D2B2D2B202F0F10242F00202D2B2D2B2E0
:4044C0001A7042F20043C4F20A234FF001021A7042F20443C4F20A234FF001021A7048F26433C1F6FF731B7843F00703DAB248F26433C1F6FF731A70FB7B184601F058FFEC
:4045000007F11007BD4680BD90B585B000AF786001F04AFF0346FB7348F26433C1F6FF734FF000021A70FEF761FBFEF733FBFEF725FD48F26C13C1F6FF731B784FEA4303F6
:40454000DAB248F26B13C1F6FF731B7842EA0303DAB248F26D13C1F6FF731B784FEA8303DBB242EA0303DBB2DAB248F25A33C1F6FF731A7048F25A33C1F6FF731B7803F17F
:40458000FF33032B00F2B08001A252F823F000BFA14500005F460000A14500005F4600007868FEF787FD42F20443C4F20A234FF000021A7042F22043C4F20A231B78DCB287
:4045C00042F20443C4F20A234FF001021A70FEF7E1FA7868FFF7CAFC0346A3420CD048F26433C1F6FF731B7843F00803DAB248F26433C1F6FF731A7045F21003C4F200033D
:4046000045F21002C4F200021278D2B2D2B202F0F10242F00202D2B2D2B21A7042F20043C4F20A234FF001021A7042F20443C4F20A234FF001021A7048F26433C1F6FF73F0
:404640001A7848F25A33C1F6FF731B7842EA0303DAB248F26433C1F6FF731A7073E0FEF799FA4FF000040AE07B684FF000021A707B6803F101037B6004F10103DCB2032CC1
:40468000F2D945F21003C4F2000345F21002C4F200021278D2B2D2B202F0F10242F00202D2B2D2B21A7042F20043C4F20A234FF001021A7042F20443C4F20A234FF0010226
:4046C0001A7048F26433C1F6FF731A7848F25A33C1F6FF731B7842EA0303DAB248F26433C1F6FF731A702EE0FEF754FA45F21003C4F2000345F21002C4F200021278D2B27C
:40470000D2B202F0F10242F00202D2B2D2B21A7042F20043C4F20A234FF001021A7042F20443C4F20A234FF001021A7048F26433C1F6FF731B7843F00703DAB248F26433D1
:40474000C1F6FF731A70FB7B184601F031FE07F11407BD4690BD00BF90B585B000AF786039604FF00A044FF00003FB7309E0FA7B3B6813444FF000021A70FB7B03F1010348
:40478000FB73FB7B042BF2D97B681A7848F25B33C1F6FF731A703868FFF7B6FE04F1FF33DCB2002C08D048F26433C1F6FF731B7803F00703072BEED03B6803F1040248F2D7
:4047C0006433C1F6FF731B7843F02003DBB2137007F11407BD4690BD90B583B000AF786039604FF00A047B681A7848F25B33C1F6FF731A707B6803F101031846FFF75CFD40
:4048000004F1FF33DCB2002C08D048F26433C1F6FF731B7803F00703072BEBD048F26433C1F6FF731B7843F02003DAB23B681A7007F10C07BD4690BD80B586B000AFF860DF
:40484000B9607A604FF0020005F062FE0346FB82BB681B889AB2FB8A13449BB21A467B681A80BB681B881AB2FB681A44FB8A4FF0020011461A4605F02FFF4FF0020005F0A8
:4048800077FFB7F916303F2B07DC48F26A13C1F6FF734FF001021A7006E048F26A13C1F6FF734FF000021A7007F11807BD4680BD80B586B000AFF860B9607A603B604FF06C
:4048C00000037B824FF00003BB824FF000037B828FE0B7F91220FB6813441B7803F00403002B26D0B7F91220FB681A443B681B8819B2BB680B4410461946FFF72DFF3B68A1
:404900001B889BB203F105039BB21A463B681A807B8A03F101039BB27B823B6A1B88B7F912201BB29A4263D17B684FF000021A805FE03B6A1B889AB27B8AC3EB02039BB2BD
:40494000A3F105039BB2FB82B7F91630002B1EDA4FF00003BB8211E0B7F91420FB681344B7F91210B7F914200A441146FA680A4412781A70BB8A03F10103BB82B7F914202D
:40498000B7F9163003F105039A42E5DB15E0B7F91220FB681A443B681B8819B2BB680B4410461946FFF718FF3B681B889BB203F101039BB21A463B681A80B7F91630002BF6
:4049C00010DCB7F91630002B04D17B684FF000021A8016E0FB8A03F105039BB21A467B681A800EE07B8A03F105039BB27B8200E000BF3B6A1B88B7F912201BB29A42FFF6D6
:404A000068AF07F11807BD4680BD00BF80B582B000AF78600B467B804FF0010005F05EFD0346012BF8D17B884FF0010079681A4605F0A6FD07F10807BD4680BD80B586B073
:404A400000AFF860B9607A604FF000037B824FF00003BB827B681B881BB203F13F02002BB8BF13464FEAA313FB827B681B881AB24FEAE2734FEA93631A4402F03F02C3EB41
:404A800002039AB27B681A804FF000037B8211E0B7F91420FB68134418464FF04001FFF7B5FF7B8A03F101037B82BB8A03F140039BB2BB82B7F91220B7F916309A42E7DB5C
:404AC00048F26A13C1F6FF731B78002B0FD0B7F91420FB681A447B681B881BB210461946FFF794FF7B684FF000021A801CE04FF000037B8211E0B7F91220FB681344B7F9CD
:404B00001410B7F912200A441146FA680A4412781A707B8A03F101037B827B681B88B7F912201BB29A42E6DB07F11807BD4680BD80B582B002AF48F26830C1F6FF7048F299
:404B40005C31C1F6FF7148F25832C1F6FF72FFF773FE48F25833C1F6FF73009348F26830C1F6FF7048F2D811C1F6FF7148F25C32C1F6FF7248F2D413C1F6FF73FFF798FEA5
:404B800048F2D810C1F6FF7048F25C31C1F6FF7148F2D412C1F6FF72FFF750FFBD4680BD80B582B000AF4FF000037B714FF00003BB714FF00003FB7148F2F033C1F6FF730C
:404BC0001B7803F00F037B7148F2F033C1F6FF731B784FEA1313BB7148F2F033C1F6FF735B78FB717B79002B18D1BA79FB7910461946FFF703FA0346012B07D148F2AC330B
:404C0000C1F6FF734FF001021A700EE048F2AC33C1F6FF734FF000021A7006E048F2AC33C1F6FF734FF000021A7007F10807BD4680BD00BF80B500AF01F034F90346B3F598
:404C40007A7F07D948F2AC33C1F6FF734FF04002DA7006E048F2AC33C1F6FF734FF00002DA7048F2AC33C1F6FF734FF000021A7180BD00BF80B500AF45F21403C4F20003A6
:404C800045F21402C4F200021278D2B2D2B202F0F10242F00C02D2B2D2B21A7045F21403C4F2000345F21402C4F200021278D2B202F0FE021A704FF4C87002F07BF845F2F9
:404CC0001403C4F2000345F21402C4F200021278D2B2D2B202F0F10242F00202D2B2D2B21A70FDF71BFF80BD80B582B000AF4FF00003FB7148F2EC33C1F6FF731B78002B51
:404D000063D048F2EC33C1F6FF731B78402B13D0402B04DC012B09D0042B0AD047E0422B39D0422B21DB432B38D040E0FFF782FF3DE0FFF79FFF3AE048F2F033C1F6FF7320
:404D40001B78FB71FB79012B07D148F20413C1F6FF734FF001021A7029E048F20413C1F6FF734FF000021A7021E048F25C33C1F6FF734FF000021A8048F2D413C1F6FF7310
:404D80004FF000021A8048F25833C1F6FF734FF000021A800BE0FFF703FF08E048F2F033C1F6FF731B78002B01D1FEF7E3FB48F2EC33C1F6FF734FF000021A7048F2ED33F4
:404DC000C1F6FF734FF000021A704FF0020005F00BFD0346002B08D048F20413C1F6FF731B78012B01D1FFF7A3FE07F10807BD4680BD00BF80B400AF48F2EC33C1F6FF7328
:404E00004FF000021A7048F2ED33C1F6FF734FF000021A70BD4680BC704700BF80B483B000AF4FF00103BB7148F2ED33C1F6FF731B78012B07D148F2B063C1F6FF734FF050
:404E400000021A8079E046F20603C4F200031B78DBB21A4646F20703C4F200031B78DBB24FEA03239BB213449AB248F2B063C1F6FF731A8046F20103C4F200031B78DBB234
:404E8000012B09D148F2AC32C1F6FF7248F2B063C1F6FF735A6050E046F20103C4F200031B78DBB2022B48D107F1060248F2B063C1F6FF735A6046F20203C4F200031B7838
:404EC000FB7146F20303C4F200031B78DAB248F2EE33C1F6FF731A7046F20403C4F200031B78DAB248F2F033C1F6FF731A7046F20503C4F200031B78DAB248F2F033C1F6CF
:404F0000FF735A70FB79072B17D148F2EE33C1F6FF731B78002B10D048F2EE33C1F6FF731A7848F2EC33C1F6FF731A7048F2ED33C1F6FF734FF001021A7007F10C07BD4606
:404F400080BC704780B500AF4FF0030005F0C6FA0346012BF8D14FF0030048F24061C1F6FF714FF0400205F00BFB4FF0040005F0FFFB80BD80B582B000AF04F015F900F0EE
:404F80000DFA4FF0010004F0D3FE4FF0000004F0A1FE4FF00003BB7118E004F0EBFE0346002B17D14FF0010004F094FE4FF0280001F000FF4FF0000004F08CFE4FF0280033
:404FC00001F0F8FEBB7903F10103BB71BB79312BE3D900E000BF4FF0000004F0A9FE4FF0010004F077FE4FF0500001F0E3FE4FF0010004F09DFE4FF0500001F0DBFE04F087
:40500000B9FE0346002B08D004F084FE0346002B03D04FF00103FB7102E04FF00003FB7100F0CEF904F0A4F8FB79184607F10807BD4680BD90B587B000AFBA607B600346A8
:40504000FB730B46BB734FF00003FB754FF000037B75FB7B03F00203002B41D004F08AFE0346002B04D004F055FE0346002B11D104F0BCFC4FF00A0001F09CFEFFF77AFF65
:405080000346002B06D17B684FF000021A704FF00103FB75FB7D012B5BD004F085F804F067F8BB681A78FB7B03F001031046194604F0A8FB0346002B03D14FF00103BB7588
:4050C00002E04FF00003BB757B68BA7D1A707B7D03F101037B75BB7B03F1FF333B7539E0FB7B03F00403002B1ED0BB681A78FB7B03F001031046194604F002FC0346002BED
:4051000003D14FF00103BB7502E04FF00003BB757B68BA7D1A707B7D03F101037B75BB7B03F1FF333B7515E04FF00103BB75FB7B03F00103DBB2002B0CD07B68BA7D1A7037
:405140007B7D03F101037B75BB7B03F1FF333B7500E000BFBB7D012B67D1FB7D012B64D0FB7B03F00103DBB2002B33D0BB7B002B58D011E07A7D7B6802EB03044FF0010080
:4051800004F0E0FC034623707B7D03F101037B753B7D03F1FF333B753B7D002BEAD1FB7B03F00803002B0AD07A7D7B6802EB03044FF0000004F0C6FC0346237035E07A7D13
:4051C0007B6802EB03044FF0010004F0BBFC034623702AE0BB7B3B7520E07A7DBB6813441B78184604F046FC0346002B03D14FF00103BB7502E04FF00003BB757A7D7B68A0
:405200001344BA7D1A70BB7D002B0DD07B7D03F101037B753B7D03F1FF333B753B7D002BDBD102E000BF00E000BFFB7B03F00803002B01D004F0DAFB07F11C07BD4690BD35
:4052400080B400AF45F26103C4F2000345F26102C4F200021278D2B2D2B202F0F10242F00802D2B2D2B21A7045F26003C4F2000345F26002C4F200021278D2B2D2B202F038
:40528000F10242F00802D2B2D2B21A70BD4680BC704700BF80B400AF45F26103C4F2000345F26102C4F200021278D2B2D2B202F0F10242F00202D2B2D2B21A7045F2600316
:4052C000C4F2000345F26002C4F200021278D2B2D2B202F0F10242F00202D2B2D2B21A70BD4680BC704700BF80B500AF4FF0010008F0D2FA4FF0010008F0F0FA45F262030A
:40530000C4F2000345F26202C4F200021278D2B2D2B202F0F10242F00C02D2B2D2B21A7045F26303C4F2000345F26302C4F200021278D2B2D2B202F0F10242F00C02D2B233
:40534000D2B21A7080BD00BF80B400AF45F26303C4F2000345F26302C4F200021278D2B2D2B202F0F10242F00202D2B2D2B21A7045F26203C4F2000345F26202C4F20002AF
:405380001278D2B2D2B202F0F10242F00202D2B2D2B21A70BD4680BC704700BF80B400AF45F2C613C4F2000345F2C612C4F200021278D2B202F0FC021A70BD4680BC704708
:4053C00080B400AF45F2C613C4F2000345F2C612C4F200021278D2B242F00302D2B21A70BD4680BC704700BF80B500AF03F0DCFEFFF750FF80BD00BF80B500AFFFF7F4FF73
:4054000048F2F533C1F6FF734FF000021A7002F0E7FD03F00FFD80BD80B582B000AF4FF0040005F0E1F90346002B00F09D824FF0040005F06DF80346BB80BB8803F0FF0300
:405440004FF0040048F2FC31C1F6FF711A4605F043F90346FB7148F2F633C1F6FF734FF000021A7048F2F433C1F6FF734FF000021A7048F2F633C1F6FF731B781A4648F2B0
:40548000FC33C1F6FF739B5CBB7048F2F633C1F6FF731B7803F10103DAB248F2F633C1F6FF731A7048F2F633C1F6FF731B781A4648F2FC33C1F6FF739B5C03F03F03FB7011
:4054C00048F2F633C1F6FF731B7803F10103DAB248F2F633C1F6FF731A7048F2F433C1F6FF731B781A4648F24063C1F6FF734FF000019954BB7803F02003002B56D003F0B6
:4055000053FEBB7803F00C030C2B0DD14FF003004FF0010102F086FD48F23D63C1F6FF734FF00C021A7037E0BB7803F00C03042B0DD14FF009004FF0010102F073FD48F280
:405540003D63C1F6FF734FF004021A7024E0BB7803F00C03002B0DD14FF027004FF0010102F060FD48F23D63C1F6FF734FF000021A7011E0BB7803F00C03082B0CD14FF018
:405580004F004FF0010102F04DFD48F23D63C1F6FF734FF008021A7003F0EAFD48F24063C1F6FF734FF001021A70DBE1BB7803F01003002B14D0FFF7DDFC0346012B07D17D
:4055C00048F24063C1F6FF734FF001021A70C9E148F24063C1F6FF734FF000021A70C1E1BB7803F00203002B00F0998148F2F633C1F6FF731B781A4648F2FC33C1F6FF734B
:405600009B5C5BB2002B80F28A8100F04BFC0346B3F57A7F0DD948F2F433C1F6FF731B781A4648F24063C1F6FF734FF0050199540CE048F2F433C1F6FF731B781A4648F25F
:405640004063C1F6FF734FF00101995448F2F433C1F6FF731B7803F10103DAB248F2F433C1F6FF731A7048F2F633C1F6FF731B781A4648F2FC33C1F6FF739B5C802B40F098
:405680009D80BB7803F00103DBB2002B00F0678148F2F433C1F6FF731A78114648F24063C1F6FF734FF00100585402F10103DAB248F2F433C1F6FF731A7048F2F433C1F6FF
:4056C000FF731A78114648F23D63C1F6FF73187848F24063C1F6FF73585402F10103DAB248F2F433C1F6FF731A7000F0DBFB03461A4648F2F833C1F6FF731A8048F2F4337B
:40570000C1F6FF731A78114648F2F833C1F6FF731B88D8B248F24063C1F6FF73585402F10103DAB248F2F433C1F6FF731A7048F2F433C1F6FF731A78114648F2F833C1F6C4
:40574000FF731B884FEA13239BB2D8B248F24063C1F6FF73585402F10103DAB248F2F433C1F6FF731A7048F2F433C1F6FF731A78114648F24063C1F6FF734FF00000585421
:4057800002F10103DAB248F2F433C1F6FF731A7048F2F433C1F6FF731A78114648F24063C1F6FF734FF00000585402F10103DAB248F2F433C1F6FF731A70D3E048F2F63341
:4057C000C1F6FF731B781A4648F2FC33C1F6FF739B5C812B3AD148F2F433C1F6FF731A78114648F26E13C1F6FF73187848F24063C1F6FF73585402F10103DAB248F2F433D0
:40580000C1F6FF731A7048F2F433C1F6FF731A78114648F24063C1F6FF734FF00200585402F10103DAB248F2F433C1F6FF731A7048F2F433C1F6FF731B781A4648F240635E
:40584000C1F6FF734FF0020199548BE048F2F633C1F6FF731B781A4648F2FC33C1F6FF739B5C822B02D101F075FA7BE048F2F633C1F6FF731B781A4648F2FC33C1F6FF7311
:405880009B5C8F2B3BD1FFF7AFFD48F2F633C1F6FF731B7803F10103DAB248F2F633C1F6FF731A7048F2F633C1F6FF731B781A4648F2FC33C1F6FF739B5C002B1CD1FFF7BA
:4058C00013FDFFF7BDFC03F053FCFFF753FB48F2F533C1F6FF734FF000021A7048F2F433C1F6FF731B781A4648F24063C1F6FF734FF00001995435E0FFF726FD32E048F2E3
:40590000F633C1F6FF731B781A4648F2FC33C1F6FF739B5CA02B24D107F00AFD22E048F2F533C1F6FF731B78002B0AD1BA78FB78104619460E4A48F24063C1F6FF73FFF707
:4059400079FB48F2F433C1F6FF731A78FB781344DAB248F2F433C1F6FF731A7002E000BF00E000BFFFF7EEFA07F10807BD4680BDFE83FF1F80B485B000AF02460B46FA710D
:40598000BB714FF00103FB73FB79002B06D0BB79002B03D14FF00103FB7308E0FB79002B05D1BB79002B02D14FF00203FB73FB7B184607F11407BD4680BC704780B58AB024
:4059C00000AF4FF0000387F826304FF0000387F8273048F20813C1F6FF731B78DBB23B7148F20813C1F6FF731B7CDAB248F20813C1F6FF735B7CDBB2134487F8253045F29A
:405A00000403C4F2000345F20402C4F200021278D2B242F00E02D2B2D2B21A7045F20503C4F2000345F20502C4F200021278D2B242F00E02D2B2D2B21A7045F20603C4F209
:405A4000000345F20602C4F200021278D2B242F00E02D2B2D2B21A7045F20703C4F2000345F20702C4F200021278D2B242F00E02D2B2D2B21A7045F21A03C4F2000345F232
:405A80001A02C4F200021278D2B242F00E02D2B2D2B21A7045F21B03C4F2000345F21B02C4F200021278D2B242F00E02D2B2D2B21A7045F20403C4F2000345F20402C4F24A
:405AC00000021278D2B242F00102D2B21A7045F20503C4F2000345F20502C4F200021278D2B242F00102D2B21A7045F20603C4F2000345F20602C4F200021278D2B242F0E4
:405B00000102D2B21A7045F20703C4F2000345F20702C4F200021278D2B242F00102D2B21A7045F21A03C4F2000345F21A02C4F200021278D2B242F00102D2B21A7045F271
:405B40001B03C4F2000345F21B02C4F200021278D2B242F00102D2B21A704FF00A0001F005F945F20403C4F200031B78DBB203F010033B7745F20503C4F200031B78DBB2D2
:405B800003F010037B7745F20603C4F200031B78DBB203F01003BB7745F20703C4F200031B78DBB203F01003FB7745F21A03C4F200031B78DBB203F0100387F8203045F2D1
:405BC0001B03C4F200031B78DBB203F0100387F8213045F20403C4F2000345F20402C4F200021278D2B202F0FE021A7045F20503C4F2000345F20502C4F200021278D2B266
:405C000002F0FE021A7045F20603C4F2000345F20602C4F200021278D2B202F0FE021A7045F20703C4F2000345F20702C4F200021278D2B202F0FE021A7045F21A03C4F2E8
:405C4000000345F21A02C4F200021278D2B202F0FE021A7045F21B03C4F2000345F21B02C4F200021278D2B202F0FE021A704FF00A0001F07BF845F20403C4F200031B78B1
:405C8000DBB203F010033B7545F20503C4F200031B78DBB203F010037B7545F20603C4F200031B78DBB203F01003BB7545F20703C4F200031B78DBB203F01003FB7545F27D
:405CC0001A03C4F200031B78DBB203F010033B7645F21B03C4F200031B78DBB203F010037B7645F20403C4F2000345F20402C4F200021278D2B2D2B202F0F10242F0020239
:405D0000D2B2D2B21A7045F20503C4F2000345F20502C4F200021278D2B2D2B202F0F10242F00202D2B2D2B21A7045F20603C4F2000345F20602C4F200021278D2B2D2B222
:405D400002F0F10242F00202D2B2D2B21A7045F20703C4F2000345F20702C4F200021278D2B2D2B202F0F10242F00202D2B2D2B21A7045F21A03C4F2000345F21A02C4F22F
:405D800000021278D2B2D2B202F0F10242F00202D2B2D2B21A7045F21B03C4F2000345F21B02C4F200021278D2B2D2B202F0F10242F00202D2B2D2B21A704FF0000387F888
:405DC000263024E097F8263007F128010B4413F80C2C97F8263007F128010B4413F8143C10461946FFF7C6FD034603F1FF3297F8263002FA03F3DAB297F82730134487F806
:405E0000273097F8263003F1010387F8263097F82630052BD6D997F8273003F1FF33DAB248F26E13C1F6FF731A7007F12807BD4680BD00BF80B500AF02F010FB02F014FC86
:405E400000F002F880BD00BF80B500AF4FF0000002F0DAFF4FF0000002F01AFC02F048FC03469BB29AB248F27213C1F6FF731A8048F27213C1F6FF731A8840F2E7339A42BB
:405E800007D848F21C13C1F6FF734FF001021A7006E048F21C13C1F6FF734FF000021A7080BD00BF80B582B000AF4FF00003BB804FF0010002F0A8FF4FF0000002F0E8FBE6
:405EC00002F016FC03469BB2FB80FB88184600F013F80346BB80BB881A464FEA42021344BB80BB884FEA5303BB80BB88184607F10807BD4680BD00BF80B485B000AF034666
:405F0000FB804FF000037B814FF00003FB6048F21C13C1F6FF731B78012B06D1FB8841F2883202FB03F3FB6005E0FB8840F6E44202FB03F3FB60FB684FEA1333FB60FB6873
:405F40007B817B89184607F11407BD4680BC704780B500AF02F082FE80BD00BF80B500AF4FF0010002F06CF907F0F8FD07F094FAFFF7EEFFFCF7D2FDFFF736FAFFF7E4F9DE
:405F800000F06EFF4FF000004FF0400101F00AFB80BD00BF80B500AF01F00AF9FEF72AFFFFF72AFAFCF758FD02F084FE02F05CFB00F086F907F0BCFD48F26913C1F6FF73C0
:405FC0004FF001021A704FF0000002F039F980BD80B500AF48F27013C1F6FF731B78012B13D104F02FFA0346002B07D105F088FDFFF7B4FFFFF7CEFF05F04EFE48F270137B
:40600000C1F6FF734FF000021A7080BD80B594B000AF04F0C5FC0346002B6DD004F0EAFC03467B647B6CB3F5E13F02D94FF4E1337B647A6C40F2AF439A4202D84FF49663E3
:406040007B647B6CB3F5165F30D0B3F5165F09D8B3F5166F34D0B3F5965F2CD0B3F5966F33D037E0B3F5164F16D0B3F5164F03D8B3F5964F15D02DE0B3F5614F07D0B3F57D
:40608000E13F27D14FF01A03A7F84A3026E04FF03403A7F84A3021E04FF04E03A7F84A301CE04FF09C03A7F84A3017E04FF49C73A7F84A3012E040F27123A7F84A300DE001
:4060C00040F2E243A7F84A3008E040F6C413A7F84A3003E04FF01A03A7F84A3007F0DCF9B7F84A3003F1FF339BB218464FF0010102F0C2FE07F030F94FF0070004F0EEF9D0
:406100000346002B18D04FF0070004F001FA034687F84C3097F84C3007F104024FF0070011461A4604F0D8FA07F1040297F84C301046194607F0C6FA07F000FA034687F890
:406140004D3097F84D30002B00F0B5804FF0060004F0C4F90346012B40F0AD8097F84D30402B03D94FF0400387F84D3048F2CC13C1F6FF731B7887F84E304FF0000387F81A
:406180004F3021E097F84E305BB2002B03DA4FF0000387F84E3046F2D803C4F2000397F84E1048F2D472C1F6FF72525CD2B21A7097F84F3003F1010387F84F3097F84E30D0
:4061C00003F1010387F84E3097F84F2097F84D309A42D7D346F2D403C4F2000348F2CC62C1F6FF72B2F84E2092B2D2B21A7046F2D503C4F2000348F2CC62C1F6FF72B2F855
:406200004E2092B24FEA122292B2D2B21A7046F25C03C4F2000397F84D204FEA2222D1B248F2CC62C1F6FF7292F84B20D2B241EA0202D2B2D2B21A7046F25D03C4F2000386
:4062400097F84D201A7046F2D603C4F2000348F2CC62C1F6FF72B2F84E2092B2D2B21A7046F2D703C4F2000348F2CC62C1F6FF72B2F84E2092B24FEA122292B2D2B21A705E
:4062800048F2CC63C1F6FF734FF0000283F8492046F25E03C4F2000348F2CC62C1F6FF7292F84D20D2B21A7048F2CC13C1F6FF7397F84E201A7007F15007BD4680BD00BF29
:4062C00080B500AF07F048F84FF0020003F064FD80BD00BF80B500AF04F04EFB4FF00C0003F05AFD80BD00BF80B400AFFEE700BF014B1A70FCF7E4FABC76004080B582B039
:4063000000AF4EF60C53CEF2000340F20042C0F2FA521A604EF61453CEF200034EF61452CEF20002126842F400721A604FF000037B6014E07A687B684FEA830142F6000318
:40634000C0F200030B441B68194648F20003C1F6FF7343F822107B6803F101037B607B682F2BE7D947F2BC63C4F200031B78DAB248F28063C1F6FF731A704EF60853CEF252
:40638000000348F20002C1F6FF721A6007F0E8FE07F10807BD4680BD0230800803D000BF01380046FCD17047EFF3108072B6704780F31088704700BF80B584B000AF034656
:4063C000FB714FF00003BB6044F22023C4F2000344F22022C4F200021278D2B242F00102D2B21A70FB79002B4DD044F20033C4F200031B787B7344F28033C4F200031B788D
:40640000BB7344F28233C4F200031B78FB734FF0180001F009FA4FF01003BB6019E044F22523C4F200031B78DBB203F00103DBB2002B0ED044F22523C4F200031B78DBB29D
:4064400003F00103DBB2002B03D04FF00003BB6006E04FF0010001F0A9F90346012BDED17B7B03F00403002B01D100F0CFFB44F28033C4F20003BA7B1A7044F28233C4F2B7
:406480000003FA7B1A70BB68184607F11007BD4680BD00BF80B400AF44F22023C4F2000344F22022C4F200021278D2B202F0FE021A70BD4680BC704780B584B000AF034625
:4064C000FB7144F2A033C4F2000344F2A032C4F200021278D2B242F01002D2B21A70FB79002B4DD044F20033C4F200031B78FB73FB7B03F00403002B01D100F073FB44F26E
:406500008233C4F200031B787B7344F28033C4F200031B78BB7344F28233C4F2000344F28232C4F200021278D2B202F0FC021A7044F28033C4F200034FF000021A7044F298
:406540008233C4F200034FF001021A704FF0010001F02CF90346002BF8D0FB7B03F00403002B01D100F052FB44F28033C4F20003BA7B1A7044F28233C4F200037A7B1A7021
:4065800007F11007BD4680BD80B400AF44F2A033C4F2000344F2A032C4F200021278D2B202F0EF021A70BD4680BC704780B483B000AF4FF00003FB7144F29333C4F200033D
:4065C0001B78DBB203F00703002B0AD144F2A533C4F200031B78DBB203F00103DBB2002B14D144F29333C4F200031B78DBB203F00703012B0DD144F2B533C4F200031B78B7
:40660000DBB203F00103DBB2002B02D04FF00103FB71FB79184607F10C07BD4680BC704780B584B000AF0346FB71FFF7BFFF0346FB73FB7B012B0CD146F20903C4F2000316
:4066400046F20902C4F200021278D2B202F0FD021A70FB79082B79D801A252F823F000BF856600009D660000B5660000CD660000E5660000FD6600004D6700004D6700008D
:406680001567000044F2A163C4F2000340F20812C4F600121278D2B21A7057E044F2A163C4F2000340F20912C4F600121278D2B21A704BE044F2A163C4F2000340F20A1274
:4066C000C4F600121278D2B21A703FE044F2A163C4F2000340F20B12C4F600121278D2B21A7033E044F2A163C4F2000340F28912C4F600121278D2B21A7027E044F2A163F9
:40670000C4F2000340F20C12C4F600121278D2B21A701BE044F2A163C4F2000340F20F12C4F600121278D2B21A70FB7B012B0DD146F20903C4F2000346F20902C4F20002CF
:406740001278D2B242F00202D2B21A7007F11007BD4680BD80B584B000AF0346FB7144F20023C4F200031B78DBB203F00703BB73FB79082B01D0FB7901E04FF00303FB73CE
:40678000BB7B052B25D801A252F823F0A5670000AD670000B5670000BD670000C5670000CD6700004FF00203BB7312E04FF00103BB730EE04FF00303BB730AE04FF0000354
:4067C000BB7306E04FF00403BB7302E04FF00503BB73FA7BBB7B9A4203D3FB791846FFF71FFFFB79082B00F2888001A252F823F0156800003768000059680000756800001C
:4068000097680000B9680000FB680000FB680000DB68000044F20023C4F2000344F20022C4F200021278D2B202F0B80242F00302D2B21A7061E044F20023C4F2000344F285
:406840000022C4F200021278D2B202F0B80242F00102D2B21A7050E044F20023C4F2000344F20022C4F200021278D2B202F0B8021A7042E044F20023C4F2000344F200221F
:40688000C4F200021278D2B202F0B80242F00202D2B21A7031E044F20023C4F2000344F20022C4F200021278D2B202F0B80242F00402D2B21A7020E044F20023C4F20003DD
:4068C00044F20022C4F200021278D2B202F0B80242F00502D2B21A700FE044F20023C4F2000344F20022C4F200021278D2B202F0B80242F04202D2B21A70FB79082B02D1BE
:4069000000F068F801E000F079F8FA7BBB7B9A4203D2FB791846FFF783FE07F11007BD4680BD00BF80B483B000AF0346FB71FB79012B20D0022B02D0002B39D045E044F229
:406940000003C4F2000344F20002C4F200021278D2B202F0BF021A7044F20023C4F2000344F20022C4F200021278D2B242F02002D2B21A7029E044F20003C4F2000344F25D
:406980000002C4F200021278D2B242F04002D2B21A7044F20023C4F2000344F20022C4F200021278D2B242F02002D2B21A700CE044F20023C4F2000344F20022C4F20002ED
:4069C0001278D2B202F0DF021A7007F10C07BD4680BC704780B400AF44F20023C4F2000344F20022C4F200021278D2B242F01002D2B21A70BD4680BC704700BF80B400AF2E
:406A000044F20023C4F2000344F20022C4F200021278D2B202F0EF021A70BD4680BC704780B483B000AF0346FB7144F20503C4F2000344F20502C4F200021278D2B21146A7
:406A400001F0FC01FA7902F0030241EA0202D2B21A7007F10C07BD4680BC704780B483B000AF0346FB7144F20403C4F20003FA791A7007F10C07BD4680BC704780B483B05A
:406A800000AF0346FB8044F21403C4F2000344F21402C4F200021278D2B202F0F0021A7044F21003C4F200034FF000021A7044F20803C4F2000344F20802C4F20002127894
:406AC000D2B26FEA42626FEA5262D2B21A7044F20203C4F20003FA88D2B21A7044F20303C4F20003FA884FEA122292B2D2B21A7044F20103C4F2000344F20102C4F200025C
:406B00001278D2B242F00102D2B21A7007F10C07BD4680BC704700BF80B584B000AF0346FB80FFF741FC0346FB7344F20703C4F200031B78DBB24FEA03239AB244F206037B
:406B4000C4F200031B78DBB242EA0303BB81FB88002B02D0BB89002B38D144F20403C4F200031B78FB72FB7A062B03D84FF00700FFF774FFFB88002B12D144F20803C4F228
:406B8000000344F20802C4F200021278D2B242F04002D2B21A70FB881846FFF76FFF10E0FB881846FFF76AFF44F20803C4F2000344F20802C4F200021278D2B202F0BF0222
:406BC0001A70FB7A1846FFF749FF03E0FB881846FFF754FFFB7B1846FFF7EAFB07F11007BD4680BD80B400AF44F20033C4F2000344F20032C4F200021278D2B242F0040284
:406C0000D2B21A70BD4680BC704700BF80B400AF44F20033C4F2000344F20032C4F200021278D2B202F0FB021A70BD4680BC704780B586B000AF0346FB714FF000033B6142
:406C4000FB79FB7344F21023C4F2000344F21022C4F200021278D2B242F00102D2B21A70FB79002B5DD044F20033C4F200031B787B7544F28033C4F200031B78BB7544F293
:406C80008233C4F200031B78FB754FF0180000F0CBFD4FF010033B612CE044F21023C4F200031B784FF00403BB730CE04FF0010000F07CFD0346012BF8D1BB7BDBB203F1A7
:406CC000FF33DBB2BB73BB7BDBB2002BEED144F21023C4F200031B78DBB25BB2002B03DB4FF000033B6109E0FB7BDBB203F1FF33DBB2FB73FB7BDBB2002BCED17B7D03F0FF
:406D00000403002B01D1FFF781FF44F28033C4F20003BA7D1A7044F28233C4F20003FA7D1A703B69184607F11807BD4680BD00BF80B400AF44F21023C4F2000344F210224C
:406D4000C4F200021278D2B202F0FE021A70BD4680BC704780B400AF44F2F663C4F200034FF001021A70BD4680BC704780B582B000AF78600BE048F22C13C1F6FF731B68F0
:406D80001846FFF709FB7B68A3F500437B607B68B3F5004FEFD848F22413C1F6FF731B687A6802FB03F31846FFF7F6FA07F10807BD4680BD80B582B000AF0346FB80FA8868
:406DC00048F22813C1F6FF731B7803FB02F31846FFF7E2FA07F10807BD4680BD80B485B000AF03463960FB714EF60853CEF200031B68FB60FB7903F01F0303F110034FEA89
:406E00008302FB6813441B68BB60FB7903F01F0303F110034FEA8302FB6813443A681A60BB68184607F11407BD4680BC704700BF80B483B000AF02460B46FA71BB71FB794E
:406E400003F01F0303F1604303F56443BA794FEA4212D2B21A7007F10C07BD4680BC704780B500AF44F2A133C4F200031B78DBB21A4602F00F0248F2A413C1F6FF731A702A
:406E800044F2A233C4F200031B78DAB248F2A413C1F6FF735A7044F2A133C4F2000344F2A132C4F200021278D2B202F0F0021A7044F2A233C4F200031B7844F2A233C4F2F3
:406EC00000034FF000021A7044F60003C4F200031B78DBB21A4602F0C00248F2A413C1F6FF735A714FF0370007F07AFA44F20023C4F200031B78DBB21A4602F0070248F20D
:406F0000A413C1F6FF73DA7044F20023C4F200031B78DBB21A4602F0400248F2A413C1F6FF731A7144F20023C4F200031B78DBB203F01003002B07D048F2A413C1F6FF7368
:406F40004FF001025A7206E048F2A413C1F6FF734FF000025A724FF00400FFF7FBFB44F2A033C4F200031B78DBB203F01003002B07D048F2A413C1F6FF734FF001029A7176
:406F80000AE048F2A413C1F6FF734FF000029A714FF00000FFF790FA44F20023C4F200031B78DBB203F02003002B18D044F20003C4F200031B78DBB203F04003002B02D121
:406FC0004FF0020201E04FF0010248F2A413C1F6FF73DA714FF00000FFF7A4FC06E048F2A413C1F6FF734FF00002DA7144F20003C4F200031B78DBB21A4602F0300248F295
:40700000A413C1F6FF731A7248F2A413C1F6FF731B7A002B0CD044F20003C4F2000344F20002C4F200021278D2B202F0CF021A7044F20023C4F200031B78DBB203F01003B9
:40704000002B01D0FFF7DAFC44F20403C4F200031B78DAB248F2A413C1F6FF739A7248F2A413C1F6FF739B7A002B03D04FF00000FFF7F4FC44F20503C4F200031B78DBB2A4
:407080001A4602F0030248F2A413C1F6FF739A7048F2A413C1F6FF739B78002B03D04FF00000FFF7BDFC44F20703C4F200031B78DBB24FEA03239AB244F20603C4F2000380
:4070C0001B78DBB242EA03039BB29AB248F2A413C1F6FF739A8148F2A413C1F6FF739B89002B03D04FF00000FFF716FD44F20023C4F200031B78DBB203F007024EF6300347
:40710000C0F200039B5C184607F06AF944F22023C4F200031B78DBB203F00103DBB2002B09D048F2A413C1F6FF734FF001029A73FFF7B0F906E048F2A413C1F6FF734FF0CA
:4071400000029A7344F21023C4F200031B78DBB203F00103DBB2002B09D048F2A413C1F6FF734FF00102DA73FFF7E2FD06E048F2A413C1F6FF734FF00002DA7344F20B03E6
:40718000C4F200031B78DBB203F00403002B07D048F2A413C1F6FF734FF001021A7406E048F2A413C1F6FF734FF000021A7480BD80B584B000AF4FF01003BB604EF6380201
:4071C000C0F200023B4692E80300186003F10403198003F102034FEA11421A7048F2A413C1F6FF731B7C012B26D144F20023C4F200031B78DBB203F007024EF63003C0F297
:4072000000039B5C1A4613464FEA830313444FEA0312C3EB02031846FFF7BEF844F20B03C4F2000344F20B02C4F200021278D2B242F00402D2B21A7048F2A413C1F6FF7314
